:1000000052C0000075C0000073C0000071C0000045
:100010006FC000006DC000006BC0000069C0000030
:1000200067C0000065C0000063C0000061C0000040
:100030005FC000005DC000005BC0000059C0000050
:10004000C0C3000055C0000003C2000033C200005E
:100050004FC000004DC000004BC0000049C0000070
:1000600047C0000045C00000010204081020408085
:1000700001020408102001020408102004040404F2
:100080000404040402020202020203030303030342
:1000900000000000250028002B00000000002400C4
:1000A00027002A00880211241FBECFEFD8E0DEBF50
:1000B000CDBF11E0A0E0B1E0E0E2F9E002C00590C0
:1000C0000D92A431B107D9F721E0A4E1B1E001C05C
:1000D0001D92AC3BB207E1F710E0C6EAD0E003C0E6
:1000E0002297FE0117D4C43AD107D1F760D316C4C2
:1000F00087CF26E040E855E260E070E086E191E0DD
:100100004DD160E08EE031D04AE050E064E670E02E
:1001100086E191E035C3809100010AD090931501EA
:10012000809314014AE050E0BC0186E191E028C3CD
:100130008E3008F08E5087702091020190E4299F44
:1001400090011124822B80937C0080917A0080643E
:1001500080937A0080917A0086FDFCCF80917800B0
:100160002091790090E0922B0895CF93DF9390E057
:10017000FC01E859FF4F2491FC01E458FF4F8491A2
:10018000882349F190E0880F991FFC01E656FF4F44
:10019000A591B49180579F4FFC01C591D4919FB711
:1001A000611108C0F8948C91209582238C938881EA
:1001B00082230AC0623051F4F8948C91322F30952A
:1001C00083238C938881822B888304C0F8948C913C
:1001D000822B8C939FBFDF91CF910895FC01818D7D
:1001E000228D90E0805C9F4F821B91098F7399272D
:1001F0000895FC01918D828D981731F0828DE80F62
:10020000F11D858D90E008958FEF9FEF0895FC011B
:10021000918D828D981761F0828DDF01A80FB11D3D
:100220005D968C91928D9F5F9F73928F90E0089561
:100230008FEF9FEF08958FE792E0892B41F080E0E8
:1002400090E0892B21F05BD181110C94000008957E
:10025000FC01848DDF01A80FB11DA35ABF4F2C9163
:10026000848D90E001968F739927848FA689B78932
:100270002C93A089B1898C9180648C93938D848D0B
:10028000981306C00288F389E02D80818F7D8083DA
:100290000895CF93DF93EC01888D8823C1F0EA891C
:1002A000FB89808185FD05C0A889B9898C9186FD6F
:1002B0000EC00FB607FCF5CF808185FFF2CFA8896D
:1002C000B9898C9185FFEDCFCE01C2DFE8CFDF91F8
:1002D000CF910895CF92DF92FF920F931F93CF9308
:1002E000DF931F92CDB7DEB76C01DC015B969C916A
:1002F0005B975C968C915C97981307C05096ED9134
:10030000FC915197808185FD31C0F601038D10E08D
:100310000F5F1F4F0F731127F02EF601848DF81217
:1003200010C00FB607FCF9CFD6015096ED91FC91A5
:100330005197808185FFF1CFC601698389DF69818B
:10034000ECCF838DE80FF11DE35AFF4F6083D60198
:100350005B960C935B975296ED91FC91539780813D
:100360008062808381E058968C930DC0D6015696AA
:10037000ED91FC91579760835096ED91FC915197C8
:1003800080818064808381E090E00F90DF91CF9145
:100390001F910F91FF90DF90CF900895BF92CF9261
:1003A000DF92EF92FF92CF93DF93EC016A017B0122
:1003B000B22E60E874E88EE190E0A701960186D243
:1003C000215031094109510956954795379527958F
:1003D000E889F98982E08083211580E1380790F06F
:1003E000E889F989108260E472E48FE090E0A70167
:1003F00096016CD221503109410951095695479512
:1004000037952795EC85FD853083EE85FF85208324
:10041000188EEC89FD89B082EA89FB898081806130
:100420008083EA89FB89808188608083EA89FB89EF
:10043000808180688083EA89FB8980818F7D8083C9
:10044000DF91CF91FF90EF90DF90CF90BF90089514
:100450001F920F920FB60F9211242F938F939F9399
:10046000EF93FF93E0912601F09127018081E091C5
:100470002C01F0912D0182FD12C0908180912F01FD
:100480008F5F8F7320913001821751F0E0912F011F
:10049000F0E0EA5EFE4F958F80932F0101C08081CE
:1004A000FF91EF919F918F912F910F900FBE0F9021
:1004B0001F9018951F920F920FB60F9211242F9331
:1004C0003F934F935F936F937F938F939F93AF93DC
:1004D000BF93EF93FF9386E191E0BADEFF91EF9136
:1004E000BF91AF919F918F917F916F915F914F914C
:1004F0003F912F910F900FBE0F901F90189586E19E
:1005000091E06CDE21E0892B09F420E0822F089530
:10051000109219011092180188EE93E0A0E0B0E06B
:1005200080931A0190931B01A0931C01B0931D01AD
:1005300087E091E0909317018093160185EC90E09D
:10054000909323018093220184EC90E09093250105
:100550008093240180EC90E0909327018093260102
:1005600081EC90E0909329018093280182EC90E047
:1005700090932B0180932A0186EC90E090932D01BB
:1005800080932C0110922F011092300110923101B2
:10059000109232010895CF92DF92EF92FF920F9363
:1005A0001F93CF93DF936C017A01EB01E60EF71EE8
:1005B00000E010E0CE15DF0561F06991D601ED9104
:1005C000FC910190F081E02DC6010995080F191FDB
:1005D000F1CFC801DF91CF911F910F91FF90EF9064
:1005E000DF90CF9008956115710581F0DB010D90CA
:1005F0000020E9F7AD0141505109461B570BDC01C2
:10060000ED91FC910280F381E02D099480E090E06F
:100610000895DC01ED91FC910190F081E02D0994A9
:100620000F931F93CF93DF93EC016DE0F2DF8C010A
:100630006AE0CE01EEDF800F911FDF91CF911F9115
:100640000F9108958F929F92AF92BF92CF92DF92B7
:10065000EF92FF920F931F93CF93DF93CDB7DEB747
:10066000A1970FB6F894DEBF0FBECDBF7C01C42E9C
:10067000E52FCB01D22E19A221E02D1510F02AE092
:10068000D22E8E010F5D1F4F8D2C912CA12CB12CE1
:100690006C2D7E2FA501940119D18C2DD29E80192D
:1006A0001124015011098A3014F4805D01C0895C65
:1006B000F8018083211531054105510521F0C22E35
:1006C000E32FCA01E5CFB801C7018DDFA1960FB6B0
:1006D000F894DEBF0FBECDBFDF91CF911F910F9178
:1006E000FF90EF90DF90CF90BF90AF909F908F9052
:1006F0000895CF92DF92EF92FF920F931F93CF93C3
:10070000DF93EC016A017B012115310579F4E88161
:10071000F9810190F081E02D642FDF91CF911F913D
:100720000F91FF90EF90DF90CF9009942A30310520
:10073000D9F477FF18C06DE26CDF8C014427552790
:10074000BA014C195D096E097F092AE0CE017ADFF2
:10075000800F911FDF91CF911F910F91FF90EF902C
:10076000DF90CF9008952AE0B701A601CE01DF9176
:10077000CF911F910F91FF90EF90DF90CF9062CFBC
:100780000F931F93CF93DF93EC019A01AB01662780
:1007900057FD6095762FADDF8C01CE0141DF800FD4
:1007A000911FDF91CF911F910F910895089553D01C
:1007B000FDDF9FDCCBE1D1E0AEDC2097E9F33BDD50
:1007C000FBCF1F920F920FB60F9211242F933F93DE
:1007D0008F939F93AF93BF938091B4019091B50194
:1007E000A091B601B091B7013091B30126E0230F7B
:1007F0002D3720F40296A11DB11D05C029E8230F55
:100800000396A11DB11D2093B3018093B401909371
:10081000B501A093B601B093B7018091B801909152
:10082000B901A091BA01B091BB010196A11DB11D02
:100830008093B8019093B901A093BA01B093BB0122
:10084000BF91AF919F918F913F912F910F900FBECC
:100850000F901F901895789484B5826084BD84B5FC
:10086000816084BD85B5826085BD85B5816085BDAB
:10087000EEE6F0E0808181608083E1E8F0E01082C4
:10088000808182608083808181608083E0E8F0E005
:10089000808181608083E1EBF0E0808184608083EF
:1008A000E0EBF0E0808181608083EAE7F0E0808126
:1008B0008460808380818260808380818160808386
:1008C0008081806880831092C1000895A1E21A2E71
:1008D000AA1BBB1BFD010DC0AA1FBB1FEE1FFF1FE4
:1008E000A217B307E407F50720F0A21BB30BE40B34
:1008F000F50B661F771F881F991F1A9469F760957B
:100900007095809590959B01AC01BD01CF01089534
:10091000EE0FFF1F0590F491E02D0994F894FFCF9E
:10092000100001000000006A01CB02EE000701F98F
:040930000049010079
:00000001FF
